{
	"data": {
		"bytecode": {
			"linkReferences": {},
			"object": "608060405234801561001057600080fd5b5060d78061001f6000396000f3fe6080604052348015600f57600080fd5b506004361060285760003560e01c8063c42b140914602d575b600080fd5b60336047565b604051603e9190607e565b60405180910390f35b7fd50d8b1538ea3c0a7606b7406bce9a503885098fe59d4ad3108582ce5f02949860001c60001b81565b6078816097565b82525050565b6000602082019050609160008301846071565b92915050565b600081905091905056fea2646970667358221220206449ab7145220a2b76df3b4ceb5a4e0d0c2d0a009de3cc9a5deb2e167ae3df64736f6c63430008070033",
			"opcodes": "PUSH1 0x80 PUSH1 0x40 MSTORE CALLVALUE DUP1 ISZERO PUSH2 0x10 JUMPI PUSH1 0x0 DUP1 REVERT JUMPDEST POP PUSH1 0xD7 DUP1 PUSH2 0x1F PUSH1 0x0 CODECOPY PUSH1 0x0 RETURN INVALID PUSH1 0x80 PUSH1 0x40 MSTORE CALLVALUE DUP1 ISZERO PUSH1 0xF JUMPI PUSH1 0x0 DUP1 REVERT JUMPDEST POP PUSH1 0x4 CALLDATASIZE LT PUSH1 0x28 JUMPI PUSH1 0x0 CALLDATALOAD PUSH1 0xE0 SHR DUP1 PUSH4 0xC42B1409 EQ PUSH1 0x2D JUMPI JUMPDEST PUSH1 0x0 DUP1 REVERT JUMPDEST PUSH1 0x33 PUSH1 0x47 JUMP JUMPDEST PUSH1 0x40 MLOAD PUSH1 0x3E SWAP2 SWAP1 PUSH1 0x7E JUMP JUMPDEST PUSH1 0x40 MLOAD DUP1 SWAP2 SUB SWAP1 RETURN JUMPDEST PUSH32 0xD50D8B1538EA3C0A7606B7406BCE9A503885098FE59D4AD3108582CE5F029498 PUSH1 0x0 SHR PUSH1 0x0 SHL DUP2 JUMP JUMPDEST PUSH1 0x78 DUP2 PUSH1 0x97 JUMP JUMPDEST DUP3 MSTORE POP POP JUMP JUMPDEST PUSH1 0x0 PUSH1 0x20 DUP3 ADD SWAP1 POP PUSH1 0x91 PUSH1 0x0 DUP4 ADD DUP5 PUSH1 0x71 JUMP JUMPDEST SWAP3 SWAP2 POP POP JUMP JUMPDEST PUSH1 0x0 DUP2 SWAP1 POP SWAP2 SWAP1 POP JUMP INVALID LOG2 PUSH5 0x6970667358 0x22 SLT KECCAK256 KECCAK256 PUSH5 0x49AB714522 EXP 0x2B PUSH23 0xDF3B4CEB5A4E0D0C2D0A009DE3CC9A5DEB2E167AE3DF64 PUSH20 0x6F6C634300080700330000000000000000000000 "
		},
		"gasEstimates": {
			"creation": {
				"codeDepositCost": "43000",
				"executionCost": "93",
				"totalCost": "43093"
			},
			"external": {
				"WINSTON_SLOT()": "319"
			}
		},
		"methodIdentifiers": {
			"WINSTON_SLOT()": "c42b1409"
		}
	},
	"abi": [
		{
			"inputs": [],
			"name": "WINSTON_SLOT",
			"outputs": [
				{
					"internalType": "bytes32",
					"name": "",
					"type": "bytes32"
				}
			],
			"stateMutability": "view",
			"type": "function"
		}
	]
}